{
  "_format": "hh-sol-artifact-1",
  "contractName": "SonicSubscrypt",
  "sourceName": "contracts/Subscription.sol",
  "abi": [
    {
      "inputs": [
        {
          "internalType": "address",
          "name": "_defaultToken",
          "type": "address"
        },
        {
          "internalType": "address",
          "name": "_feeMRelayer",
          "type": "address"
        }
      ],
      "stateMutability": "nonpayable",
      "type": "constructor"
    },
    {
      "inputs": [],
      "name": "ReentrancyGuardReentrantCall",
      "type": "error"
    },
    {
      "anonymous": false,
      "inputs": [
        {
          "indexed": true,
          "internalType": "address",
          "name": "user",
          "type": "address"
        },
        {
          "indexed": true,
          "internalType": "uint256",
          "name": "planId",
          "type": "uint256"
        },
        {
          "indexed": false,
          "internalType": "uint256",
          "name": "nftTokenId",
          "type": "uint256"
        }
      ],
      "name": "Cancelled",
      "type": "event"
    },
    {
      "anonymous": false,
      "inputs": [
        {
          "indexed": true,
          "internalType": "address",
          "name": "user",
          "type": "address"
        },
        {
          "indexed": true,
          "internalType": "uint256",
          "name": "planId",
          "type": "uint256"
        },
        {
          "indexed": false,
          "internalType": "uint256",
          "name": "amount",
          "type": "uint256"
        },
        {
          "indexed": false,
          "internalType": "uint256",
          "name": "timestamp",
          "type": "uint256"
        }
      ],
      "name": "Charged",
      "type": "event"
    },
    {
      "anonymous": false,
      "inputs": [
        {
          "indexed": true,
          "internalType": "address",
          "name": "relayer",
          "type": "address"
        }
      ],
      "name": "FeeMEnabled",
      "type": "event"
    },
    {
      "anonymous": false,
      "inputs": [
        {
          "indexed": true,
          "internalType": "address",
          "name": "user",
          "type": "address"
        },
        {
          "indexed": true,
          "internalType": "uint256",
          "name": "tokenId",
          "type": "uint256"
        },
        {
          "indexed": true,
          "internalType": "uint256",
          "name": "planId",
          "type": "uint256"
        }
      ],
      "name": "NFTMinted",
      "type": "event"
    },
    {
      "anonymous": false,
      "inputs": [
        {
          "indexed": true,
          "internalType": "uint256",
          "name": "planId",
          "type": "uint256"
        },
        {
          "indexed": true,
          "internalType": "address",
          "name": "merchant",
          "type": "address"
        },
        {
          "indexed": false,
          "internalType": "string",
          "name": "name",
          "type": "string"
        },
        {
          "indexed": false,
          "internalType": "uint256",
          "name": "amount",
          "type": "uint256"
        },
        {
          "indexed": false,
          "internalType": "uint256",
          "name": "interval",
          "type": "uint256"
        },
        {
          "indexed": false,
          "internalType": "bool",
          "name": "supportsNFT",
          "type": "bool"
        }
      ],
      "name": "PlanCreated",
      "type": "event"
    },
    {
      "anonymous": false,
      "inputs": [
        {
          "indexed": true,
          "internalType": "address",
          "name": "user",
          "type": "address"
        },
        {
          "indexed": true,
          "internalType": "uint256",
          "name": "planId",
          "type": "uint256"
        },
        {
          "indexed": false,
          "internalType": "uint256",
          "name": "nextPaymentTime",
          "type": "uint256"
        },
        {
          "indexed": false,
          "internalType": "uint256",
          "name": "nftTokenId",
          "type": "uint256"
        }
      ],
      "name": "Subscribed",
      "type": "event"
    },
    {
      "anonymous": false,
      "inputs": [
        {
          "indexed": true,
          "internalType": "address",
          "name": "token",
          "type": "address"
        },
        {
          "indexed": false,
          "internalType": "bool",
          "name": "supported",
          "type": "bool"
        }
      ],
      "name": "TokenSupported",
      "type": "event"
    },
    {
      "inputs": [],
      "name": "MAX_BILLING_INTERVAL",
      "outputs": [
        {
          "internalType": "uint256",
          "name": "",
          "type": "uint256"
        }
      ],
      "stateMutability": "view",
      "type": "function"
    },
    {
      "inputs": [],
      "name": "MIN_BILLING_INTERVAL",
      "outputs": [
        {
          "internalType": "uint256",
          "name": "",
          "type": "uint256"
        }
      ],
      "stateMutability": "view",
      "type": "function"
    },
    {
      "inputs": [
        {
          "internalType": "address",
          "name": "token",
          "type": "address"
        }
      ],
      "name": "addSupportedToken",
      "outputs": [],
      "stateMutability": "nonpayable",
      "type": "function"
    },
    {
      "inputs": [
        {
          "internalType": "address",
          "name": "user",
          "type": "address"
        }
      ],
      "name": "cancelSubscription",
      "outputs": [],
      "stateMutability": "nonpayable",
      "type": "function"
    },
    {
      "inputs": [
        {
          "internalType": "string",
          "name": "name",
          "type": "string"
        },
        {
          "internalType": "uint256",
          "name": "amount",
          "type": "uint256"
        },
        {
          "internalType": "uint256",
          "name": "interval",
          "type": "uint256"
        },
        {
          "internalType": "bool",
          "name": "supportsNFT",
          "type": "bool"
        },
        {
          "internalType": "uint256",
          "name": "maxSubscribers",
          "type": "uint256"
        }
      ],
      "name": "createPlan",
      "outputs": [
        {
          "internalType": "uint256",
          "name": "",
          "type": "uint256"
        }
      ],
      "stateMutability": "nonpayable",
      "type": "function"
    },
    {
      "inputs": [
        {
          "internalType": "uint256",
          "name": "planId",
          "type": "uint256"
        }
      ],
      "name": "deactivatePlan",
      "outputs": [],
      "stateMutability": "nonpayable",
      "type": "function"
    },
    {
      "inputs": [],
      "name": "defaultToken",
      "outputs": [
        {
          "internalType": "address",
          "name": "",
          "type": "address"
        }
      ],
      "stateMutability": "view",
      "type": "function"
    },
    {
      "inputs": [],
      "name": "feeMEnabled",
      "outputs": [
        {
          "internalType": "bool",
          "name": "",
          "type": "bool"
        }
      ],
      "stateMutability": "view",
      "type": "function"
    },
    {
      "inputs": [],
      "name": "feeMRelayer",
      "outputs": [
        {
          "internalType": "address",
          "name": "",
          "type": "address"
        }
      ],
      "stateMutability": "view",
      "type": "function"
    },
    {
      "inputs": [],
      "name": "getGlobalStats",
      "outputs": [
        {
          "internalType": "uint256",
          "name": "totalRev",
          "type": "uint256"
        },
        {
          "internalType": "uint256",
          "name": "totalSubs",
          "type": "uint256"
        },
        {
          "internalType": "uint256",
          "name": "totalPlans",
          "type": "uint256"
        }
      ],
      "stateMutability": "view",
      "type": "function"
    },
    {
      "inputs": [
        {
          "internalType": "address",
          "name": "merchant",
          "type": "address"
        }
      ],
      "name": "getMerchantStats",
      "outputs": [
        {
          "internalType": "uint256",
          "name": "revenue",
          "type": "uint256"
        },
        {
          "internalType": "uint256",
          "name": "activePlans",
          "type": "uint256"
        },
        {
          "internalType": "uint256",
          "name": "totalSubscribers",
          "type": "uint256"
        }
      ],
      "stateMutability": "view",
      "type": "function"
    },
    {
      "inputs": [
        {
          "internalType": "uint256",
          "name": "planId",
          "type": "uint256"
        }
      ],
      "name": "getPlan",
      "outputs": [
        {
          "components": [
            {
              "internalType": "uint256",
              "name": "planId",
              "type": "uint256"
            },
            {
              "internalType": "string",
              "name": "name",
              "type": "string"
            },
            {
              "internalType": "uint256",
              "name": "amount",
              "type": "uint256"
            },
            {
              "internalType": "uint256",
              "name": "interval",
              "type": "uint256"
            },
            {
              "internalType": "address",
              "name": "merchant",
              "type": "address"
            },
            {
              "internalType": "bool",
              "name": "active",
              "type": "bool"
            },
            {
              "internalType": "bool",
              "name": "supportsNFT",
              "type": "bool"
            },
            {
              "internalType": "uint256",
              "name": "maxSubscribers",
              "type": "uint256"
            },
            {
              "internalType": "uint256",
              "name": "currentSubscribers",
              "type": "uint256"
            }
          ],
          "internalType": "struct SonicSubscrypt.Plan",
          "name": "",
          "type": "tuple"
        }
      ],
      "stateMutability": "view",
      "type": "function"
    },
    {
      "inputs": [
        {
          "internalType": "address",
          "name": "user",
          "type": "address"
        }
      ],
      "name": "getSubscriptionNFT",
      "outputs": [
        {
          "internalType": "uint256",
          "name": "",
          "type": "uint256"
        }
      ],
      "stateMutability": "view",
      "type": "function"
    },
    {
      "inputs": [
        {
          "internalType": "address",
          "name": "user",
          "type": "address"
        }
      ],
      "name": "getUserSubscription",
      "outputs": [
        {
          "components": [
            {
              "internalType": "uint256",
              "name": "planId",
              "type": "uint256"
            },
            {
              "internalType": "uint256",
              "name": "nextPaymentTime",
              "type": "uint256"
            },
            {
              "internalType": "uint256",
              "name": "lastPaymentTime",
              "type": "uint256"
            },
            {
              "internalType": "bool",
              "name": "active",
              "type": "bool"
            },
            {
              "internalType": "uint256",
              "name": "totalPaid",
              "type": "uint256"
            },
            {
              "internalType": "uint256",
              "name": "nftTokenId",
              "type": "uint256"
            }
          ],
          "internalType": "struct SonicSubscrypt.Subscription",
          "name": "",
          "type": "tuple"
        }
      ],
      "stateMutability": "view",
      "type": "function"
    },
    {
      "inputs": [
        {
          "internalType": "address",
          "name": "user",
          "type": "address"
        }
      ],
      "name": "getUserSubscriptions",
      "outputs": [
        {
          "internalType": "uint256[]",
          "name": "",
          "type": "uint256[]"
        }
      ],
      "stateMutability": "view",
      "type": "function"
    },
    {
      "inputs": [
        {
          "internalType": "address",
          "name": "",
          "type": "address"
        }
      ],
      "name": "merchantRevenue",
      "outputs": [
        {
          "internalType": "uint256",
          "name": "",
          "type": "uint256"
        }
      ],
      "stateMutability": "view",
      "type": "function"
    },
    {
      "inputs": [],
      "name": "owner",
      "outputs": [
        {
          "internalType": "address",
          "name": "",
          "type": "address"
        }
      ],
      "stateMutability": "view",
      "type": "function"
    },
    {
      "inputs": [
        {
          "internalType": "uint256",
          "name": "",
          "type": "uint256"
        }
      ],
      "name": "plans",
      "outputs": [
        {
          "internalType": "uint256",
          "name": "planId",
          "type": "uint256"
        },
        {
          "internalType": "string",
          "name": "name",
          "type": "string"
        },
        {
          "internalType": "uint256",
          "name": "amount",
          "type": "uint256"
        },
        {
          "internalType": "uint256",
          "name": "interval",
          "type": "uint256"
        },
        {
          "internalType": "address",
          "name": "merchant",
          "type": "address"
        },
        {
          "internalType": "bool",
          "name": "active",
          "type": "bool"
        },
        {
          "internalType": "bool",
          "name": "supportsNFT",
          "type": "bool"
        },
        {
          "internalType": "uint256",
          "name": "maxSubscribers",
          "type": "uint256"
        },
        {
          "internalType": "uint256",
          "name": "currentSubscribers",
          "type": "uint256"
        }
      ],
      "stateMutability": "view",
      "type": "function"
    },
    {
      "inputs": [
        {
          "internalType": "address[]",
          "name": "users",
          "type": "address[]"
        },
        {
          "internalType": "address",
          "name": "token",
          "type": "address"
        }
      ],
      "name": "processBatchPayments",
      "outputs": [],
      "stateMutability": "nonpayable",
      "type": "function"
    },
    {
      "inputs": [
        {
          "internalType": "address",
          "name": "user",
          "type": "address"
        },
        {
          "internalType": "address",
          "name": "token",
          "type": "address"
        }
      ],
      "name": "processPayment",
      "outputs": [],
      "stateMutability": "nonpayable",
      "type": "function"
    },
    {
      "inputs": [
        {
          "internalType": "address",
          "name": "token",
          "type": "address"
        }
      ],
      "name": "removeSupportedToken",
      "outputs": [],
      "stateMutability": "nonpayable",
      "type": "function"
    },
    {
      "inputs": [
        {
          "internalType": "address",
          "name": "token",
          "type": "address"
        }
      ],
      "name": "setDefaultToken",
      "outputs": [],
      "stateMutability": "nonpayable",
      "type": "function"
    },
    {
      "inputs": [
        {
          "internalType": "address",
          "name": "_relayer",
          "type": "address"
        }
      ],
      "name": "setFeeMRelayer",
      "outputs": [],
      "stateMutability": "nonpayable",
      "type": "function"
    },
    {
      "inputs": [
        {
          "internalType": "uint256",
          "name": "planId",
          "type": "uint256"
        },
        {
          "internalType": "address",
          "name": "token",
          "type": "address"
        }
      ],
      "name": "subscribe",
      "outputs": [],
      "stateMutability": "nonpayable",
      "type": "function"
    },
    {
      "inputs": [
        {
          "internalType": "address",
          "name": "",
          "type": "address"
        }
      ],
      "name": "subscriptions",
      "outputs": [
        {
          "internalType": "uint256",
          "name": "planId",
          "type": "uint256"
        },
        {
          "internalType": "uint256",
          "name": "nextPaymentTime",
          "type": "uint256"
        },
        {
          "internalType": "uint256",
          "name": "lastPaymentTime",
          "type": "uint256"
        },
        {
          "internalType": "bool",
          "name": "active",
          "type": "bool"
        },
        {
          "internalType": "uint256",
          "name": "totalPaid",
          "type": "uint256"
        },
        {
          "internalType": "uint256",
          "name": "nftTokenId",
          "type": "uint256"
        }
      ],
      "stateMutability": "view",
      "type": "function"
    },
    {
      "inputs": [
        {
          "internalType": "address",
          "name": "",
          "type": "address"
        }
      ],
      "name": "supportedTokens",
      "outputs": [
        {
          "internalType": "bool",
          "name": "",
          "type": "bool"
        }
      ],
      "stateMutability": "view",
      "type": "function"
    },
    {
      "inputs": [
        {
          "internalType": "uint256",
          "name": "",
          "type": "uint256"
        }
      ],
      "name": "tokenOwners",
      "outputs": [
        {
          "internalType": "address",
          "name": "",
          "type": "address"
        }
      ],
      "stateMutability": "view",
      "type": "function"
    },
    {
      "inputs": [],
      "name": "totalRevenue",
      "outputs": [
        {
          "internalType": "uint256",
          "name": "",
          "type": "uint256"
        }
      ],
      "stateMutability": "view",
      "type": "function"
    },
    {
      "inputs": [],
      "name": "totalSubscriptions",
      "outputs": [
        {
          "internalType": "uint256",
          "name": "",
          "type": "uint256"
        }
      ],
      "stateMutability": "view",
      "type": "function"
    },
    {
      "inputs": [
        {
          "internalType": "address",
          "name": "",
          "type": "address"
        },
        {
          "internalType": "uint256",
          "name": "",
          "type": "uint256"
        }
      ],
      "name": "userSubscriptions",
      "outputs": [
        {
          "internalType": "uint256",
          "name": "",
          "type": "uint256"
        }
      ],
      "stateMutability": "view",
      "type": "function"
    },
    {
      "inputs": [
        {
          "internalType": "address",
          "name": "",
          "type": "address"
        }
      ],
      "name": "userTokenId",
      "outputs": [
        {
          "internalType": "uint256",
          "name": "",
          "type": "uint256"
        }
      ],
      "stateMutability": "view",
      "type": "function"
    },
    {
      "inputs": [
        {
          "internalType": "address",
          "name": "token",
          "type": "address"
        },
        {
          "internalType": "uint256",
          "name": "amount",
          "type": "uint256"
        }
      ],
      "name": "withdrawFees",
      "outputs": [],
      "stateMutability": "nonpayable",
      "type": "function"
    }
  ],
  "bytecode": "0x60806040526000600555600060095534801561001a57600080fd5b50604051614085380380614085833981810160405281019061003c919061026c565b600160008190555033600160006101000a81548173ffffffffffffffffffffffffffffffffffffffff021916908373ffffffffffffffffffffffffffffffffffffffff16021790555081600460006101000a81548173ffffffffffffffffffffffffffffffffffffffff021916908373ffffffffffffffffffffffffffffffffffffffff16021790555080600260006101000a81548173ffffffffffffffffffffffffffffffffffffffff021916908373ffffffffffffffffffffffffffffffffffffffff160217905550600073ffffffffffffffffffffffffffffffffffffffff168173ffffffffffffffffffffffffffffffffffffffff161415600260146101000a81548160ff0219169083151502179055506001600360008473ffffffffffffffffffffffffffffffffffffffff1673ffffffffffffffffffffffffffffffffffffffff16815260200190815260200160002060006101000a81548160ff021916908315150217905550600260149054906101000a900460ff1615610202578073ffffffffffffffffffffffffffffffffffffffff167f6c8f205fa0235b59dc69412090ff62c63c173d08ced30ca6c471dc81d82c3f7260405160405180910390a25b50506102ac565b600080fd5b600073ffffffffffffffffffffffffffffffffffffffff82169050919050565b60006102398261020e565b9050919050565b6102498161022e565b811461025457600080fd5b50565b60008151905061026681610240565b92915050565b6000806040838503121561028357610282610209565b5b600061029185828601610257565b92505060206102a285828601610257565b9150509250929050565b613dca806102bb6000396000f3fe608060405234801561001057600080fd5b50600436106101f05760003560e01c80638da5cb5b1161010f578063c801451a116100a2578063e1e32f9911610071578063e1e32f99146105eb578063ebbeec0814610607578063f046395a14610637578063f8a14f461461066c576101f0565b8063c801451a14610565578063c95d6edc14610583578063ce7a2b02146105b3578063d9610575146105cf576101f0565b8063af769fcd116100de578063af769fcd146104ad578063b1620616146104dd578063b435dee114610515578063bf2d9e0b14610547576101f0565b80638da5cb5b1461042757806393d81d5814610445578063a36a004e14610461578063ad3b1b4714610491576101f0565b806364d05df4116101875780636d98757c116101565780636d98757c146103a1578063715ca542146103bd57806374c13fda146103ed578063763191901461040b576101f0565b806364d05df41461031757806368c4ac26146103355780636b4169c3146103655780636d69fcaf14610385576101f0565b806340bf7d2f116101c357806340bf7d2f14610291578063427c410c146102af57806359e6951d146102df5780636174bc63146102fb576101f0565b80631328b870146101f55780632087618e1461021357806326cd5274146102315780632e6ca58814610261575b600080fd5b6101fd61069c565b60405161020a91906129bc565b60405180910390f35b61021b6106a2565b60405161022891906129bc565b60405180910390f35b61024b60048036038101906102469190612a17565b6106a9565b6040516102589190612c04565b60405180910390f35b61027b60048036038101906102769190612c52565b610827565b6040516102889190612d2e565b60405180910390f35b6102996108be565b6040516102a691906129bc565b60405180910390f35b6102c960048036038101906102c49190612eb1565b6108c3565b6040516102d691906129bc565b60405180910390f35b6102f960048036038101906102f49190612f48565b610b60565b005b61031560048036038101906103109190612a17565b610f3a565b005b61031f611068565b60405161032c9190612f97565b60405180910390f35b61034f600480360381019061034a9190612c52565b61108e565b60405161035c9190612fc1565b60405180910390f35b61036d6110ae565b60405161037c93929190612fdc565b60405180910390f35b61039f600480360381019061039a9190612c52565b6110c7565b005b6103bb60048036038101906103b691906130db565b611201565b005b6103d760048036038101906103d29190612c52565b611451565b6040516103e491906129bc565b60405180910390f35b6103f5611469565b6040516104029190612f97565b60405180910390f35b61042560048036038101906104209190612c52565b61148f565b005b61042f611659565b60405161043c9190612f97565b60405180910390f35b61045f600480360381019061045a9190612c52565b61167f565b005b61047b60048036038101906104769190612c52565b611869565b60405161048891906129bc565b60405180910390f35b6104ab60048036038101906104a69190613137565b611881565b005b6104c760048036038101906104c29190612c52565b6119b6565b6040516104d491906129bc565b60405180910390f35b6104f760048036038101906104f29190612a17565b6119ff565b60405161050c999897969594939291906131c1565b60405180910390f35b61052f600480360381019061052a9190612c52565b611b0f565b60405161053e93929190612fdc565b60405180910390f35b61054f611c4c565b60405161055c91906129bc565b60405180910390f35b61056d611c52565b60405161057a9190612fc1565b60405180910390f35b61059d60048036038101906105989190613137565b611c65565b6040516105aa91906129bc565b60405180910390f35b6105cd60048036038101906105c89190613255565b611c96565b005b6105e960048036038101906105e49190612c52565b61215e565b005b61060560048036038101906106009190612c52565b6122bf565b005b610621600480360381019061061c9190612c52565b61241f565b60405161062e9190613310565b60405180910390f35b610651600480360381019061064c9190612c52565b6124c5565b6040516106639695949392919061332b565b60405180910390f35b61068660048036038101906106819190612a17565b61250e565b6040516106939190612f97565b60405180910390f35b600d5481565b62278d0081565b6106b1612905565b6006600083815260200190815260200160002060405180610120016040529081600082015481526020016001820180546106ea906133bb565b80601f0160208091040260200160405190810160405280929190818152602001828054610716906133bb565b80156107635780601f1061073857610100808354040283529160200191610763565b820191906000526020600020905b81548152906001019060200180831161074657829003601f168201915b5050505050815260200160028201548152602001600382015481526020016004820160009054906101000a900473ffffffffffffffffffffffffffffffffffffffff1673ffffffffffffffffffffffffffffffffffffffff1673ffffffffffffffffffffffffffffffffffffffff1681526020016004820160149054906101000a900460ff161515151581526020016004820160159054906101000a900460ff16151515158152602001600582015481526020016006820154815250509050919050565b6060600860008373ffffffffffffffffffffffffffffffffffffffff1673ffffffffffffffffffffffffffffffffffffffff1681526020019081526020016000208054806020026020016040519081016040528092919081815260200182805480156108b257602002820191906000526020600020905b81548152602001906001019080831161089e575b50505050509050919050565b603c81565b6000808511610907576040517f08c379a00000000000000000000000000000000000000000000000000000000081526004016108fe90613438565b60405180910390fd5b603c841015801561091b575062278d008411155b61095a576040517f08c379a0000000000000000000000000000000000000000000000000000000008152600401610951906134a4565b60405180910390fd5b6000821161099d576040517f08c379a000000000000000000000000000000000000000000000000000000000815260040161099490613510565b60405180910390fd5b60006005549050600560008154809291906109b79061355f565b91905055506040518061012001604052808281526020018881526020018781526020018681526020013373ffffffffffffffffffffffffffffffffffffffff1681526020016001151581526020018515158152602001848152602001600081525060066000838152602001908152602001600020600082015181600001556020820151816001019081610a4a9190613753565b50604082015181600201556060820151816003015560808201518160040160006101000a81548173ffffffffffffffffffffffffffffffffffffffff021916908373ffffffffffffffffffffffffffffffffffffffff16021790555060a08201518160040160146101000a81548160ff02191690831515021790555060c08201518160040160156101000a81548160ff02191690831515021790555060e0820151816005015561010082015181600601559050503373ffffffffffffffffffffffffffffffffffffffff16817f8d21792d71d02cd8b095a9c4a824392c7a0be9a1f300a94f7eab8c48c63191bd89898989604051610b4b9493929190613825565b60405180910390a38091505095945050505050565b80600360008273ffffffffffffffffffffffffffffffffffffffff1673ffffffffffffffffffffffffffffffffffffffff16815260200190815260200160002060009054906101000a900460ff16610bed576040517f08c379a0000000000000000000000000000000000000000000000000000000008152600401610be4906138bd565b60405180910390fd5b610bf5612541565b60006006600085815260200190815260200160002090508060040160149054906101000a900460ff16610c5d576040517f08c379a0000000000000000000000000000000000000000000000000000000008152600401610c5490613929565b60405180910390fd5b8060050154816006015410610ca7576040517f08c379a0000000000000000000000000000000000000000000000000000000008152600401610c9e90613995565b60405180910390fd5b83600760003373ffffffffffffffffffffffffffffffffffffffff1673ffffffffffffffffffffffffffffffffffffffff16815260200190815260200160002060000154141580610d455750600760003373ffffffffffffffffffffffffffffffffffffffff1673ffffffffffffffffffffffffffffffffffffffff16815260200190815260200160002060030160009054906101000a900460ff16155b610d84576040517f08c379a0000000000000000000000000000000000000000000000000000000008152600401610d7b90613a01565b60405180910390fd5b6000600760003373ffffffffffffffffffffffffffffffffffffffff1673ffffffffffffffffffffffffffffffffffffffff16815260200190815260200160002090508481600001819055504281600101819055506000816002018190555060018160030160006101000a81548160ff021916908315150217905550600081600401819055508160040160159054906101000a900460ff1615610e3a576000610e2d3387612587565b9050808260050181905550505b816006016000815480929190610e4f9061355f565b9190505550600860003373ffffffffffffffffffffffffffffffffffffffff1673ffffffffffffffffffffffffffffffffffffffff168152602001908152602001600020859080600181540180825580915050600190039060005260206000200160009091909190915055600d6000815480929190610ecd9061355f565b9190505550843373ffffffffffffffffffffffffffffffffffffffff167f5ad333a6d56a7ddb1e78d9ecb8047e9dafcb890a41a227ede8d950259a1f0f7583600101548460050154604051610f23929190613a21565b60405180910390a35050610f3561268c565b505050565b6006600082815260200190815260200160002060040160009054906101000a900473ffffffffffffffffffffffffffffffffffffffff1673ffffffffffffffffffffffffffffffffffffffff163373ffffffffffffffffffffffffffffffffffffffff161480610ff75750600160009054906101000a900473ffffffffffffffffffffffffffffffffffffffff1673ffffffffffffffffffffffffffffffffffffffff163373ffffffffffffffffffffffffffffffffffffffff16145b611036576040517f08c379a000000000000000000000000000000000000000000000000000000000815260040161102d90613a96565b60405180910390fd5b60006006600083815260200190815260200160002060040160146101000a81548160ff02191690831515021790555050565b600260009054906101000a900473ffffffffffffffffffffffffffffffffffffffff1681565b60036020528060005260406000206000915054906101000a900460ff1681565b6000806000600c54600d54600554925092509250909192565b600160009054906101000a900473ffffffffffffffffffffffffffffffffffffffff1673ffffffffffffffffffffffffffffffffffffffff163373ffffffffffffffffffffffffffffffffffffffff1614611157576040517f08c379a000000000000000000000000000000000000000000000000000000000815260040161114e90613a96565b60405180910390fd5b6001600360008373ffffffffffffffffffffffffffffffffffffffff1673ffffffffffffffffffffffffffffffffffffffff16815260200190815260200160002060006101000a81548160ff0219169083151502179055508073ffffffffffffffffffffffffffffffffffffffff167fd86c88b4a367d9b81a6e00c9d3f7d01657bffef358fa8968c91c045ae99f0d5260016040516111f69190612fc1565b60405180910390a250565b600260009054906101000a900473ffffffffffffffffffffffffffffffffffffffff1673ffffffffffffffffffffffffffffffffffffffff163373ffffffffffffffffffffffffffffffffffffffff1614806112aa5750600160009054906101000a900473ffffffffffffffffffffffffffffffffffffffff1673ffffffffffffffffffffffffffffffffffffffff163373ffffffffffffffffffffffffffffffffffffffff16145b806112c25750600260149054906101000a900460ff16155b611301576040517f08c379a00000000000000000000000000000000000000000000000000000000081526004016112f890613b02565b60405180910390fd5b80600360008273ffffffffffffffffffffffffffffffffffffffff1673ffffffffffffffffffffffffffffffffffffffff16815260200190815260200160002060009054906101000a900460ff1661138e576040517f08c379a0000000000000000000000000000000000000000000000000000000008152600401611385906138bd565b60405180910390fd5b611396612541565b60005b835181101561144357600760008583815181106113b9576113b8613b22565b5b602002602001015173ffffffffffffffffffffffffffffffffffffffff1673ffffffffffffffffffffffffffffffffffffffff16815260200190815260200160002060030160009054906101000a900460ff16156114365761143584828151811061142757611426613b22565b5b602002602001015184612696565b5b8080600101915050611399565b5061144c61268c565b505050565b600b6020528060005260406000206000915090505481565b600460009054906101000a900473ffffffffffffffffffffffffffffffffffffffff1681565b600160009054906101000a900473ffffffffffffffffffffffffffffffffffffffff1673ffffffffffffffffffffffffffffffffffffffff163373ffffffffffffffffffffffffffffffffffffffff161461151f576040517f08c379a000000000000000000000000000000000000000000000000000000000815260040161151690613a96565b60405180910390fd5b600460009054906101000a900473ffffffffffffffffffffffffffffffffffffffff1673ffffffffffffffffffffffffffffffffffffffff168173ffffffffffffffffffffffffffffffffffffffff16036115af576040517f08c379a00000000000000000000000000000000000000000000000000000000081526004016115a690613b9d565b60405180910390fd5b6000600360008373ffffffffffffffffffffffffffffffffffffffff1673ffffffffffffffffffffffffffffffffffffffff16815260200190815260200160002060006101000a81548160ff0219169083151502179055508073ffffffffffffffffffffffffffffffffffffffff167fd86c88b4a367d9b81a6e00c9d3f7d01657bffef358fa8968c91c045ae99f0d52600060405161164e9190612fc1565b60405180910390a250565b600160009054906101000a900473ffffffffffffffffffffffffffffffffffffffff1681565b600160009054906101000a900473ffffffffffffffffffffffffffffffffffffffff1673ffffffffffffffffffffffffffffffffffffffff163373ffffffffffffffffffffffffffffffffffffffff161461170f576040517f08c379a000000000000000000000000000000000000000000000000000000000815260040161170690613a96565b60405180910390fd5b6000600760008373ffffffffffffffffffffffffffffffffffffffff1673ffffffffffffffffffffffffffffffffffffffff16815260200190815260200160002090508060030160009054906101000a900460ff166117a3576040517f08c379a000000000000000000000000000000000000000000000000000000000815260040161179a90613c09565b60405180910390fd5b6000600660008360000154815260200190815260200160002090508060060160008154809291906117d390613c29565b919050555060008260030160006101000a81548160ff021916908315150217905550600d600081548092919061180890613c29565b919050555081600001548373ffffffffffffffffffffffffffffffffffffffff167f50f87f46257f76778258778496e8790189350718ebd0d5cb5f0735d3bad2380d846005015460405161185c91906129bc565b60405180910390a3505050565b600e6020528060005260406000206000915090505481565b600160009054906101000a900473ffffffffffffffffffffffffffffffffffffffff1673ffffffffffffffffffffffffffffffffffffffff163373ffffffffffffffffffffffffffffffffffffffff1614611911576040517f08c379a000000000000000000000000000000000000000000000000000000000815260040161190890613a96565b60405180910390fd5b8173ffffffffffffffffffffffffffffffffffffffff1663a9059cbb600160009054906101000a900473ffffffffffffffffffffffffffffffffffffffff16836040518363ffffffff1660e01b815260040161196e929190613c52565b6020604051808303816000875af115801561198d573d6000803e3d6000fd5b505050506040513d601f19601f820116820180604052508101906119b19190613c90565b505050565b6000600b60008373ffffffffffffffffffffffffffffffffffffffff1673ffffffffffffffffffffffffffffffffffffffff168152602001908152602001600020549050919050565b6006602052806000526040600020600091509050806000015490806001018054611a28906133bb565b80601f0160208091040260200160405190810160405280929190818152602001828054611a54906133bb565b8015611aa15780601f10611a7657610100808354040283529160200191611aa1565b820191906000526020600020905b815481529060010190602001808311611a8457829003601f168201915b5050505050908060020154908060030154908060040160009054906101000a900473ffffffffffffffffffffffffffffffffffffffff16908060040160149054906101000a900460ff16908060040160159054906101000a900460ff16908060050154908060060154905089565b6000806000600e60008573ffffffffffffffffffffffffffffffffffffffff1673ffffffffffffffffffffffffffffffffffffffff16815260200190815260200160002054925060008060005b600554811015611c39578673ffffffffffffffffffffffffffffffffffffffff166006600083815260200190815260200160002060040160009054906101000a900473ffffffffffffffffffffffffffffffffffffffff1673ffffffffffffffffffffffffffffffffffffffff1603611c2c576006600082815260200190815260200160002060040160149054906101000a900460ff1615611c07578280611c039061355f565b9350505b600660008281526020019081526020016000206006015482611c299190613cbd565b91505b8080600101915050611b5c565b5084828294509450945050509193909250565b600c5481565b600260149054906101000a900460ff1681565b60086020528160005260406000208181548110611c8157600080fd5b90600052602060002001600091509150505481565b600260009054906101000a900473ffffffffffffffffffffffffffffffffffffffff1673ffffffffffffffffffffffffffffffffffffffff163373ffffffffffffffffffffffffffffffffffffffff161480611d3f5750600160009054906101000a900473ffffffffffffffffffffffffffffffffffffffff1673ffffffffffffffffffffffffffffffffffffffff163373ffffffffffffffffffffffffffffffffffffffff16145b80611d575750600260149054906101000a900460ff16155b611d96576040517f08c379a0000000000000000000000000000000000000000000000000000000008152600401611d8d90613b02565b60405180910390fd5b80600360008273ffffffffffffffffffffffffffffffffffffffff1673ffffffffffffffffffffffffffffffffffffffff16815260200190815260200160002060009054906101000a900460ff16611e23576040517f08c379a0000000000000000000000000000000000000000000000000000000008152600401611e1a906138bd565b60405180910390fd5b611e2b612541565b6000600760008573ffffffffffffffffffffffffffffffffffffffff1673ffffffffffffffffffffffffffffffffffffffff16815260200190815260200160002090508060030160009054906101000a900460ff16611ebf576040517f08c379a0000000000000000000000000000000000000000000000000000000008152600401611eb690613c09565b60405180910390fd5b6000600660008360000154815260200190815260200160002090508060040160149054906101000a900460ff16611f2b576040517f08c379a0000000000000000000000000000000000000000000000000000000008152600401611f2290613929565b60405180910390fd5b8160010154421015611f72576040517f08c379a0000000000000000000000000000000000000000000000000000000008152600401611f6990613d3d565b60405180910390fd5b8373ffffffffffffffffffffffffffffffffffffffff166323b872dd868360040160009054906101000a900473ffffffffffffffffffffffffffffffffffffffff1684600201546040518463ffffffff1660e01b8152600401611fd793929190613d5d565b6020604051808303816000875af1158015611ff6573d6000803e3d6000fd5b505050506040513d601f19601f8201168201806040525081019061201a9190613c90565b504282600201819055508060030154426120349190613cbd565b826001018190555080600201548260040160008282546120549190613cbd565b925050819055508060020154600c60008282546120719190613cbd565b925050819055508060020154600e60008360040160009054906101000a900473ffffffffffffffffffffffffffffffffffffffff1673ffffffffffffffffffffffffffffffffffffffff1673ffffffffffffffffffffffffffffffffffffffff16815260200190815260200160002060008282546120ef9190613cbd565b9250508190555081600001548573ffffffffffffffffffffffffffffffffffffffff167f79bf8bc1d1a721050a41a66c19911b0219ff504f739f6316d7fb9e2135d44bf0836002015442604051612147929190613a21565b60405180910390a3505061215961268c565b505050565b600160009054906101000a900473ffffffffffffffffffffffffffffffffffffffff1673ffffffffffffffffffffffffffffffffffffffff163373ffffffffffffffffffffffffffffffffffffffff16146121ee576040517f08c379a00000000000000000000000000000000000000000000000000000000081526004016121e590613a96565b60405180910390fd5b80600260006101000a81548173ffffffffffffffffffffffffffffffffffffffff021916908373ffffffffffffffffffffffffffffffffffffffff160217905550600073ffffffffffffffffffffffffffffffffffffffff168173ffffffffffffffffffffffffffffffffffffffff161415600260146101000a81548160ff0219169083151502179055508073ffffffffffffffffffffffffffffffffffffffff167f6c8f205fa0235b59dc69412090ff62c63c173d08ced30ca6c471dc81d82c3f7260405160405180910390a250565b600160009054906101000a900473ffffffffffffffffffffffffffffffffffffffff1673ffffffffffffffffffffffffffffffffffffffff163373ffffffffffffffffffffffffffffffffffffffff161461234f576040517f08c379a000000000000000000000000000000000000000000000000000000000815260040161234690613a96565b60405180910390fd5b600360008273ffffffffffffffffffffffffffffffffffffffff1673ffffffffffffffffffffffffffffffffffffffff16815260200190815260200160002060009054906101000a900460ff166123db576040517f08c379a00000000000000000000000000000000000000000000000000000000081526004016123d2906138bd565b60405180910390fd5b80600460006101000a81548173ffffffffffffffffffffffffffffffffffffffff021916908373ffffffffffffffffffffffffffffffffffffffff16021790555050565b61242761296b565b600760008373ffffffffffffffffffffffffffffffffffffffff1673ffffffffffffffffffffffffffffffffffffffff1681526020019081526020016000206040518060c00160405290816000820154815260200160018201548152602001600282015481526020016003820160009054906101000a900460ff16151515158152602001600482015481526020016005820154815250509050919050565b60076020528060005260406000206000915090508060000154908060010154908060020154908060030160009054906101000a900460ff16908060040154908060050154905086565b600a6020528060005260406000206000915054906101000a900473ffffffffffffffffffffffffffffffffffffffff1681565b60026000540361257d576040517f3ee5aeb500000000000000000000000000000000000000000000000000000000815260040160405180910390fd5b6002600081905550565b6000806009549050600960008154809291906125a29061355f565b919050555083600a600083815260200190815260200160002060006101000a81548173ffffffffffffffffffffffffffffffffffffffff021916908373ffffffffffffffffffffffffffffffffffffffff16021790555080600b60008673ffffffffffffffffffffffffffffffffffffffff1673ffffffffffffffffffffffffffffffffffffffff1681526020019081526020016000208190555082818573ffffffffffffffffffffffffffffffffffffffff167f3a8a89b59a31c39a36febecb987e0657ab7b7c73b60ebacb44dcb9886c2d5c8a60405160405180910390a48091505092915050565b6001600081905550565b6000600760008473ffffffffffffffffffffffffffffffffffffffff1673ffffffffffffffffffffffffffffffffffffffff16815260200190815260200160002090506000600660008360000154815260200190815260200160002090508060040160149054906101000a900460ff1615806127155750816001015442105b15612721575050612901565b8273ffffffffffffffffffffffffffffffffffffffff166323b872dd858360040160009054906101000a900473ffffffffffffffffffffffffffffffffffffffff1684600201546040518463ffffffff1660e01b815260040161278693929190613d5d565b6020604051808303816000875af11580156127a5573d6000803e3d6000fd5b505050506040513d601f19601f820116820180604052508101906127c99190613c90565b504282600201819055508060030154426127e39190613cbd565b826001018190555080600201548260040160008282546128039190613cbd565b925050819055508060020154600c60008282546128209190613cbd565b925050819055508060020154600e60008360040160009054906101000a900473ffffffffffffffffffffffffffffffffffffffff1673ffffffffffffffffffffffffffffffffffffffff1673ffffffffffffffffffffffffffffffffffffffff168152602001908152602001600020600082825461289e9190613cbd565b9250508190555081600001548473ffffffffffffffffffffffffffffffffffffffff167f79bf8bc1d1a721050a41a66c19911b0219ff504f739f6316d7fb9e2135d44bf08360020154426040516128f6929190613a21565b60405180910390a350505b5050565b60405180610120016040528060008152602001606081526020016000815260200160008152602001600073ffffffffffffffffffffffffffffffffffffffff16815260200160001515815260200160001515815260200160008152602001600081525090565b6040518060c0016040528060008152602001600081526020016000815260200160001515815260200160008152602001600081525090565b6000819050919050565b6129b6816129a3565b82525050565b60006020820190506129d160008301846129ad565b92915050565b6000604051905090565b600080fd5b600080fd5b6129f4816129a3565b81146129ff57600080fd5b50565b600081359050612a11816129eb565b92915050565b600060208284031215612a2d57612a2c6129e1565b5b6000612a3b84828501612a02565b91505092915050565b612a4d816129a3565b82525050565b600081519050919050565b600082825260208201905092915050565b60005b83811015612a8d578082015181840152602081019050612a72565b60008484015250505050565b6000601f19601f8301169050919050565b6000612ab582612a53565b612abf8185612a5e565b9350612acf818560208601612a6f565b612ad881612a99565b840191505092915050565b600073ffffffffffffffffffffffffffffffffffffffff82169050919050565b6000612b0e82612ae3565b9050919050565b612b1e81612b03565b82525050565b60008115159050919050565b612b3981612b24565b82525050565b600061012083016000830151612b586000860182612a44565b5060208301518482036020860152612b708282612aaa565b9150506040830151612b856040860182612a44565b506060830151612b986060860182612a44565b506080830151612bab6080860182612b15565b5060a0830151612bbe60a0860182612b30565b5060c0830151612bd160c0860182612b30565b5060e0830151612be460e0860182612a44565b50610100830151612bf9610100860182612a44565b508091505092915050565b60006020820190508181036000830152612c1e8184612b3f565b905092915050565b612c2f81612b03565b8114612c3a57600080fd5b50565b600081359050612c4c81612c26565b92915050565b600060208284031215612c6857612c676129e1565b5b6000612c7684828501612c3d565b91505092915050565b600081519050919050565b600082825260208201905092915050565b6000819050602082019050919050565b6000612cb78383612a44565b60208301905092915050565b6000602082019050919050565b6000612cdb82612c7f565b612ce58185612c8a565b9350612cf083612c9b565b8060005b83811015612d21578151612d088882612cab565b9750612d1383612cc3565b925050600181019050612cf4565b5085935050505092915050565b60006020820190508181036000830152612d488184612cd0565b905092915050565b600080fd5b600080fd5b7f4e487b7100000000000000000000000000000000000000000000000000000000600052604160045260246000fd5b612d9282612a99565b810181811067ffffffffffffffff82111715612db157612db0612d5a565b5b80604052505050565b6000612dc46129d7565b9050612dd08282612d89565b919050565b600067ffffffffffffffff821115612df057612def612d5a565b5b612df982612a99565b9050602081019050919050565b82818337600083830152505050565b6000612e28612e2384612dd5565b612dba565b905082815260208101848484011115612e4457612e43612d55565b5b612e4f848285612e06565b509392505050565b600082601f830112612e6c57612e6b612d50565b5b8135612e7c848260208601612e15565b91505092915050565b612e8e81612b24565b8114612e9957600080fd5b50565b600081359050612eab81612e85565b92915050565b600080600080600060a08688031215612ecd57612ecc6129e1565b5b600086013567ffffffffffffffff811115612eeb57612eea6129e6565b5b612ef788828901612e57565b9550506020612f0888828901612a02565b9450506040612f1988828901612a02565b9350506060612f2a88828901612e9c565b9250506080612f3b88828901612a02565b9150509295509295909350565b60008060408385031215612f5f57612f5e6129e1565b5b6000612f6d85828601612a02565b9250506020612f7e85828601612c3d565b9150509250929050565b612f9181612b03565b82525050565b6000602082019050612fac6000830184612f88565b92915050565b612fbb81612b24565b82525050565b6000602082019050612fd66000830184612fb2565b92915050565b6000606082019050612ff160008301866129ad565b612ffe60208301856129ad565b61300b60408301846129ad565b949350505050565b600067ffffffffffffffff82111561302e5761302d612d5a565b5b602082029050602081019050919050565b600080fd5b600061305761305284613013565b612dba565b9050808382526020820190506020840283018581111561307a5761307961303f565b5b835b818110156130a3578061308f8882612c3d565b84526020840193505060208101905061307c565b5050509392505050565b600082601f8301126130c2576130c1612d50565b5b81356130d2848260208601613044565b91505092915050565b600080604083850312156130f2576130f16129e1565b5b600083013567ffffffffffffffff8111156131105761310f6129e6565b5b61311c858286016130ad565b925050602061312d85828601612c3d565b9150509250929050565b6000806040838503121561314e5761314d6129e1565b5b600061315c85828601612c3d565b925050602061316d85828601612a02565b9150509250929050565b600082825260208201905092915050565b600061319382612a53565b61319d8185613177565b93506131ad818560208601612a6f565b6131b681612a99565b840191505092915050565b6000610120820190506131d7600083018c6129ad565b81810360208301526131e9818b613188565b90506131f8604083018a6129ad565b61320560608301896129ad565b6132126080830188612f88565b61321f60a0830187612fb2565b61322c60c0830186612fb2565b61323960e08301856129ad565b6132476101008301846129ad565b9a9950505050505050505050565b6000806040838503121561326c5761326b6129e1565b5b600061327a85828601612c3d565b925050602061328b85828601612c3d565b9150509250929050565b60c0820160008201516132ab6000850182612a44565b5060208201516132be6020850182612a44565b5060408201516132d16040850182612a44565b5060608201516132e46060850182612b30565b5060808201516132f76080850182612a44565b5060a082015161330a60a0850182612a44565b50505050565b600060c0820190506133256000830184613295565b92915050565b600060c08201905061334060008301896129ad565b61334d60208301886129ad565b61335a60408301876129ad565b6133676060830186612fb2565b61337460808301856129ad565b61338160a08301846129ad565b979650505050505050565b7f4e487b7100000000000000000000000000000000000000000000000000000000600052602260045260246000fd5b600060028204905060018216806133d357607f821691505b6020821081036133e6576133e561338c565b5b50919050565b7f416d6f756e74206d75737420626520706f736974697665000000000000000000600082015250565b6000613422601783613177565b915061342d826133ec565b602082019050919050565b6000602082019050818103600083015261345181613415565b9050919050565b7f496e76616c696420696e74657276616c00000000000000000000000000000000600082015250565b600061348e601083613177565b915061349982613458565b602082019050919050565b600060208201905081810360008301526134bd81613481565b9050919050565b7f4d6178207375627363726962657273206d75737420626520706f736974697665600082015250565b60006134fa602083613177565b9150613505826134c4565b602082019050919050565b60006020820190508181036000830152613529816134ed565b9050919050565b7f4e487b7100000000000000000000000000000000000000000000000000000000600052601160045260246000fd5b600061356a826129a3565b91507fffffffffffffffffffffffffffffffffffffffffffffffffffffffffffffffff820361359c5761359b613530565b5b600182019050919050565b60008190508160005260206000209050919050565b60006020601f8301049050919050565b600082821b905092915050565b6000600883026136097fffffffffffffffffffffffffffffffffffffffffffffffffffffffffffffffff826135cc565b61361386836135cc565b95508019841693508086168417925050509392505050565b6000819050919050565b600061365061364b613646846129a3565b61362b565b6129a3565b9050919050565b6000819050919050565b61366a83613635565b61367e61367682613657565b8484546135d9565b825550505050565b600090565b613693613686565b61369e818484613661565b505050565b5b818110156136c2576136b760008261368b565b6001810190506136a4565b5050565b601f821115613707576136d8816135a7565b6136e1846135bc565b810160208510156136f0578190505b6137046136fc856135bc565b8301826136a3565b50505b505050565b600082821c905092915050565b600061372a6000198460080261370c565b1980831691505092915050565b60006137438383613719565b9150826002028217905092915050565b61375c82612a53565b67ffffffffffffffff81111561377557613774612d5a565b5b61377f82546133bb565b61378a8282856136c6565b600060209050601f8311600181146137bd57600084156137ab578287015190505b6137b58582613737565b86555061381d565b601f1984166137cb866135a7565b60005b828110156137f3578489015182556001820191506020850194506020810190506137ce565b86831015613810578489015161380c601f891682613719565b8355505b6001600288020188555050505b505050505050565b6000608082019050818103600083015261383f8187613188565b905061384e60208301866129ad565b61385b60408301856129ad565b6138686060830184612fb2565b95945050505050565b7f546f6b656e206e6f7420737570706f7274656400000000000000000000000000600082015250565b60006138a7601383613177565b91506138b282613871565b602082019050919050565b600060208201905081810360008301526138d68161389a565b9050919050565b7f506c616e20697320696e61637469766500000000000000000000000000000000600082015250565b6000613913601083613177565b915061391e826138dd565b602082019050919050565b6000602082019050818103600083015261394281613906565b9050919050565b7f506c616e2069732066756c6c0000000000000000000000000000000000000000600082015250565b600061397f600c83613177565b915061398a82613949565b602082019050919050565b600060208201905081810360008301526139ae81613972565b9050919050565b7f416c7265616479207375627363726962656420746f207468697320706c616e00600082015250565b60006139eb601f83613177565b91506139f6826139b5565b602082019050919050565b60006020820190508181036000830152613a1a816139de565b9050919050565b6000604082019050613a3660008301856129ad565b613a4360208301846129ad565b9392505050565b7f4e6f7420617574686f72697a6564000000000000000000000000000000000000600082015250565b6000613a80600e83613177565b9150613a8b82613a4a565b602082019050919050565b60006020820190508181036000830152613aaf81613a73565b9050919050565b7f4f6e6c79204665654d2072656c61796572206f72206f776e6572000000000000600082015250565b6000613aec601a83613177565b9150613af782613ab6565b602082019050919050565b60006020820190508181036000830152613b1b81613adf565b9050919050565b7f4e487b7100000000000000000000000000000000000000000000000000000000600052603260045260246000fd5b7f43616e6e6f742072656d6f76652064656661756c7420746f6b656e0000000000600082015250565b6000613b87601b83613177565b9150613b9282613b51565b602082019050919050565b60006020820190508181036000830152613bb681613b7a565b9050919050565b7f4e6f2061637469766520737562736372697074696f6e00000000000000000000600082015250565b6000613bf3601683613177565b9150613bfe82613bbd565b602082019050919050565b60006020820190508181036000830152613c2281613be6565b9050919050565b6000613c34826129a3565b915060008203613c4757613c46613530565b5b600182039050919050565b6000604082019050613c676000830185612f88565b613c7460208301846129ad565b9392505050565b600081519050613c8a81612e85565b92915050565b600060208284031215613ca657613ca56129e1565b5b6000613cb484828501613c7b565b91505092915050565b6000613cc8826129a3565b9150613cd3836129a3565b9250828201905080821115613ceb57613cea613530565b5b92915050565b7f546f6f206561726c7920746f2063686172676500000000000000000000000000600082015250565b6000613d27601383613177565b9150613d3282613cf1565b602082019050919050565b60006020820190508181036000830152613d5681613d1a565b9050919050565b6000606082019050613d726000830186612f88565b613d7f6020830185612f88565b613d8c60408301846129ad565b94935050505056fea26469706673582212204aaffaa6f20986a3e029fdd3afdc26ad974bf378f7f069b1afca9b82bd46463564736f6c634300081c0033",
  "linkReferences": {},
  "deployedLinkReferences": {}
}